:060000000A128A110C280F
:10000800FE00030EFA000A08FB000A128A111E28D5
:100018000A128A110F28F001F101F201F301F4012B
:10002800F50183120313A001A101A20183010A12A1
:100038008A11E12A831203130C1F23282428A728D6
:100048001F0CF800780C0F39003A031D2C282D28B6
:1000580038281E08F8007808F3001E08F800780809
:10006800F50008148810A6281F0CF800780C0F3922
:10007800013A031D402841284C281E08F80078083A
:10008800F2001E08F8007808F50008108814A62861
:100098001F0CF800780C0F39023A031D5428552814
:1000A80079281E08F8007808A1001E08F800031037
:1000B800780C7B3E95001E080139F800F80E1708E9
:1000C8007806CF39780697001E08F8000730031025
:1000D800F80CFF3E031D6B287808F900F90E170885
:1000E8007906EF3979069700A6281F0CF800780CD6
:1000F8000F39033A031D81288228A6281E08F80014
:100108007808A0001E08F8000310780C7B3E9B00BE
:100118001E080139F800F80E17087806CF39780656
:1001280097001E08F80007300310F80CFF3E031D67
:1001380098287808F900F90E17087906EF39790632
:100148009700A6280C130B1DAA28AB28B1280A1261
:100158008A117B230A128A110B110B1CB428B528AB
:10016800462A831203130618BA28BB28D028740815
:100178000319BF28C1280130C2280030F8007808C8
:10018800F400740C031C051303180517740C031CE6
:100198001F1003181F14452A8618D328D4288B2922
:1001A80074080319D828D92806297308F80078088C
:1001B800F60000300A128A114B230A128A117208BB
:1001C800F8007808F60001300A128A114B230A1247
:1001D8008A11831203132108F8007808F600023008
:1001E8000A128A114B230A128A1183120313200858
:1001F800F8007808F60003300A128A114B230A1215
:100208008A11452A00300A128A1169230A128A11B2
:10021800F8007808F500831203130814081075080D
:1002280093000D30F900FB30F800F80B1929F90B91
:1002380019291E2901300A128A1169230A128A1102
:10024800F8007808F50083120313081008147508DD
:1002580093000D30F900FB30F800F80B3129F90B49
:100268003129362902300A128A1169230A128A11A1
:10027800F8007808F1007108F8000310780C7B3E4C
:1002880083120313950071080139F800F80E170856
:100298007806CF39780697007108F8000730031000
:1002A800F80CFF3E031D53297808F900F90E1708CA
:1002B8007906EF397906970003300A128A11692303
:1002C8000A128A11F8007808F0007008F800031084
:1002D800780C7B3E831203139B0070080139F800E9
:1002E800F80E17087806CF39780697007008F800D6
:1002F80007300310F80CFF3E031D7D297808F9002C
:10030800F90E17087906EF3979069700452A061974
:100318008E298F29452A7408031993299429C129FC
:100328007308F8007808F60004300A128A114B2383
:100338000A128A117208F8007808F60005300A12C5
:100348008A114B230A128A11831203132108F80019
:100358007808F60006300A128A114B230A128A110D
:10036800831203132008F8007808F60007300A12F1
:100378008A114B230A128A11452A04300A128A115B
:1003880069230A128A11F8007808F500831203130A
:1003980008140810750893000D30F900FB30F800B8
:1003A800F80BD429F90BD429D92905300A128A1156
:1003B80069230A128A11F8007808F50083120313DA
:1003C80008100814750893000D30F900FB30F80088
:1003D800F80BEC29F90BEC29F12906300A128A11DD
:1003E80069230A128A11F8007808F1007108F800E8
:1003F8000310780C7B3E83120313950071080139B2
:10040800F800F80E17087806CF39780697007108B3
:10041800F80007300310F80CFF3E031D0E2A780879
:10042800F900F90E17087906EF39790697000730B1
:100438000A128A1169230A128A11F8007808F00052
:100448007008F8000310780C7B3E831203139B009E
:1004580070080139F800F80E17087806CF397806C1
:1004680097007008F80007300310F80CFF3E031DD2
:10047800382A7808F900F90E17087906EF3979064D
:1004880097000B10831203138C1D4B2A4C2A4D2AFC
:100498008C117B088A007A0E8300FE0E7E0E0900FE
:1004A8000F308316031788008901703083160313F1
:1004B8008F040F140F308500831203138501073052
:1004C80083160313860083120313860110308316E4
:1004D800031387008312031387018316031388010C
:1004E80083120313880183160313890183120313EC
:1004F8008901831603138113151495141515831296
:1005080003131F083F3940389F00C3309F058316E7
:1005180003131F129F129F13831203131F148316B2
:10052800031307153F308312031397051708F03993
:100538000C3897000F309D040F309500CF30970589
:100548000F309B00FA308316031392000330831296
:100558000313920412158C108C1CB32AB42AB02AE7
:100568008C108316031307118112011201158114CF
:100578000114F03083120313940514129416831691
:100588000313141794178B170B170C1783120313E5
:100598000C130B118B16831603138C15831203137C
:1005A8008C118B150B10831603131614961416153D
:1005B800831203130516930108000A128A115422A4
:1005C8000A128A110A128A1176230A128A110F3026
:1005D80083120313A300A30BEF2AF22A8312031337
:1005E8009F18F72AF82A382B1F0CA300230C0F3961
:1005F800003A031D002B012B062B1F08C3390438B2
:100608009F002E2B1F0CA300230C0F39013A031D4A
:100618000E2B0F2B142B1F08C33908389F002E2BC5
:100628001F0CA300230C0F39023A031D1C2B1D2B92
:10063800222B1F08C3390C389F002E2B1F0CA30038
:10064800230C0F39033A031D2A2B2B2B2E2BC330D7
:100658009F052E2B0F3083120313A300A30B322BFD
:10066800352B831203139F1485130D308312031344
:10067800A400FB30A300A30B3F2BA40B3F2B750852
:10068800831203139300F22A0A128A110C28F70026
:100698007708831203178D0076088C008B13831656
:1006A80003178C130C1555308D00AA308D008C144F
:1006B800831203130D1E612B622B5C2B0D12831604
:1006C80003170C110B108B170800F600760883121D
:1006D80003178D00831603178C130C14831203174A
:1006E8000C0808008312031381010B110800831200
:0806F800031381010B1108003E
:08400000FF3FFF3FFF3FFF3FC0
:04400E00D420FF3F7C
:00000001FF
