:060000000A128A110C280F
:10000800FE00030EF6000A08F7000A128A11F82803
:100018000A128A110F28F001F101F201F301F4012B
:1000280083010A128A1193280F3083160317880058
:1000380089017030831603138F040F140F30850065
:100048008312031385018316031386018312031396
:100058008601103083160313870083120313870168
:10006800831603138801831203138801831603136D
:1000780089018312031389011F083F3940389F0003
:10008800C3309F05831603131F129F129F138312F9
:1000980003131F148316031307153F30831203132A
:1000A80097051708F0390C3897000F309D040F306A
:1000B8009500CF3097050F309B00FA308316031355
:1000C8009200033083120313920412158C108C1CB7
:1000D8006E286F286B288C10831603130711811262
:1000E8000112011581140114F030831203139405D1
:1000F8001412941683160313141794178B170B17DF
:100108000C17831203130C130B118B16831603138E
:100118008C15831203138C110516930108000A121B
:100128008A1118200A128A110A128A1136210A1213
:100138008A111030F800F80B9F280000831203136F
:100148009F18A728A828E6281F0CF800780C0F3954
:10015800003A031DB028B128B6281F08C33904384F
:100168009F00DE281F0CF800780C0F39013A031D98
:10017800BE28BF28C4281F08C33908389F00DE28B6
:100188001F0CF800780C0F39023A031DCC28CD2833
:10019800D2281F08C3390C389F00DE281F0CF8002E
:1001A800780C0F39033A031DDA28DB28DE28C33020
:1001B8009F05DE281030F800F80BE02800008312B5
:1001C80003139F1485130D30F900FB30F800F80B6A
:1001D800EB28F90BEB28F02870088312031393001F
:1001E800A2280A128A110C28831203130C1FFD2857
:1001F800FE281E291F0CF500750C0F39003A031D47
:10020800062907290E291E08F5007508F0000814AC
:1002180088101D291F0CF500750C0F39013A031DB4
:10022800162917291D291E08F5007508F000081061
:1002380088140C130B1D2129222928290A128A1136
:100248003B210A128A110B11831203138C1D2D29CD
:100258002E292F298C1177088A00760E8300FE0E2E
:100268007E0E09008312031381010B11080083120B
:08027800031381010B110800C2
:08400000FF3FFF3FFF3FFF3FC0
:04400E00D420FF3F7C
:00000001FF
