:060000000A128A110C280F
:10000800FE00030EF2000A08F3000A128A111428EF
:100018000A128A110F28F60183010A128A1120296F
:10002800831203130C1F19281A288D281F0CF0009F
:10003800700C0F39003A031D222823282A281E088D
:10004800F0007008F600081488108C281F0CF000C7
:10005800700C0F39013A031D322833283A281E083C
:10006800F0007008F600081088148C281F0CF000A7
:10007800700C0F39023A031D4228432863281E08D2
:10008800F0000310700C7B3E95001E080139F0004B
:10009800F00E17087006CF39700697001E08F0009A
:1000A80007300310F00CFF3E031D55287008F100BF
:1000B800F10E17087106EF39710697008C281F0C8E
:1000C800F000700C0F39033A031D6B286C288C283C
:1000D8001E08F0000310700C7B3E9B001E080139BF
:1000E800F000F00E17087006CF39700697001E084A
:1000F800F00007300310F00CFF3E031D7E28700847
:10010800F100F10E17087106EF39710697008C2877
:100118000C130B1D9028912897280A128A118A21FE
:100128000A128A110B11831203138C1D9C289D2817
:100138009E288C1173088A00720E8300FE0E7E0EB4
:1001480009000F3083160317880089017030831661
:1001580003138F040F140F308500831203138501D6
:100168008316031386018312031386011030831646
:10017800031387008312031387018316031388016F
:10018800831203138801831603138901831203134F
:1001980089011F083F3940389F00C3309F058316E7
:1001A80003131F129F129F13831203131F14831626
:1001B800031307153F308312031397051708F03907
:1001C8000C3897000F309D040F309500CF309705FD
:1001D8000F309B00FA30831603139200033083120A
:1001E8000313920412158C108C1CFB28FC28F82889
:1001F8008C10831603130711811201120115811443
:100208000114F03083120313940514129416831604
:100218000313141794178B170B170C178312031358
:100228000C130B118B16831603138C1583120313EF
:100238008C110516930108000A128A11A5200A12CA
:100248008A110A128A1185210A128A111030F400C3
:10025800F40B2C290000831203139F183429352925
:1002680073291F0CF400740C0F39003A031D3D2943
:100278003E2943291F08C33904389F006B291F0CE6
:10028800F400740C0F39013A031D4B294C295129EC
:100298001F08C33908389F006B291F0CF400740C21
:1002A8000F39023A031D59295A295F291F08C339F2
:1002B8000C389F006B291F0CF400740C0F39033A9B
:1002C800031D672968296B29C3309F056B291030E6
:1002D800F400F40B6D290000831203139F14851397
:1002E8000D30F500FB30F400F40B7829F50B782974
:1002F8007D2976088312031393002F290A128A1185
:100308000C288312031381010B11080083120313B5
:0603180081010B11080039
:08400000FF3FFF3FFF3FFF3FC0
:04400E00D420FF3F7C
:00000001FF
