:060000000A128A110C280F
:10000800FE00030EFA000A08FB000A128A112228D1
:100018000A128A110F28F001F101F201F301F4012B
:10002800F50183120313A801A901AA01AB01AC01D0
:10003800AD01AE0183010A128A11212F8312031325
:100048000C1F27282828AB281F0CF800780C0F391C
:10005800003A031D302831283C281E08F80078088B
:10006800AB001E08F8007808F50008148810AA28C4
:100078001F0CF800780C0F39013A031D4428452855
:1000880050281E08F8007808AA001E08F80078080A
:10009800F50008108814AA281F0CF800780C0F39EE
:1000A800023A031D582859287D281E08F8007808A8
:1000B800A9001E08F8000310780C7B3E95001E0866
:1000C8000139F800F80E17087806CF397806970036
:1000D8001E08F80007300310F80CFF3E031D6F28B8
:1000E8007808F900F90E17087906EF3979069700AC
:1000F800AA281F0CF800780C0F39033A031D85282D
:100108008628AA281E08F8007808A8001E08F80003
:100118000310780C7B3E9B001E080139F800F80E8E
:1001280017087806CF39780697001E08F8000730B8
:100138000310F80CFF3E031D9C287808F900F90EFF
:1001480017087906EF3979069700AA280C130B1DB2
:10015800AE28AF28B5280A128A11BF220A128A11BE
:100168000B110B1CB828B9286C2A83120313061824
:10017800BE28BF28DD2873080319C328C528013005
:10018800C6280030F8007808F300730C031C051328
:1001980003180517730C031C1F1003181F140D30C8
:1001A800F900FB30F800F80BD728F90BD728DC2822
:1001B8006B2A8618E028E1289A2973080319E5288C
:1001C800E62815292B08F8007808F60000300A12EE
:1001D8008A1182220A128A11831203132A08F8004C
:1001E8007808F60001300A128A1182220A128A114E
:1001F800831203132908F8007808F60002300A125F
:100208008A1182220A128A11831203132808F8001D
:100218007808F60003300A128A1182220A128A111B
:100228006B2A00300A128A11B2220A128A11F800C7
:100238007808F50083120313081408107508930052
:100248000D30F900FB30F800F80B2829F90B2829A4
:100258002D2901300A128A11B2220A128A11F800D5
:100268007808F50083120313081008147508930022
:100278000D30F900FB30F800F80B4029F90B402944
:10028800452902300A128A11B2220A128A11F8008C
:100298007808F2007208F8000310780C7B3E83128D
:1002A8000313950072080139F800F80E170878064C
:1002B800CF39780697007208F80007300310F80C59
:1002C800FF3E031D62297808F900F90E1708790620
:1002D800EF397906970003300A128A11B2220A12FE
:1002E8008A11F8007808F1007108F8000310780CFA
:1002F8007B3E831203139B0071080139F800F80E46
:1003080017087806CF39780697007108F800073083
:100318000310F80CFF3E031D8C297808F900F90E2C
:1003280017087906EF39790697006B2A06199D296F
:100338009E29572A73080319A229A329D2292B0811
:10034800F8007808F60004300A128A1182220A128C
:100358008A11831203132A08F8007808F60005307A
:100368000A128A1182220A128A1183120313290897
:10037800F8007808F60006300A128A1182220A125A
:100388008A11831203132808F8007808F60007304A
:100398000A128A1182220A128A116B2A04300A125E
:1003A8008A11B2220A128A11F8007808F50083121D
:1003B800031308140810750893000D30F900FB307A
:1003C800F800F80BE529F90BE529EA2905300A12A6
:1003D8008A11B2220A128A11F8007808F5008312ED
:1003E800031308100814750893000D30F900FB304A
:1003F800F800F80BFD29F90BFD29022A06300A122C
:100408008A11B2220A128A11F8007808F2007208DA
:10041800F8000310780C7B3E8312031395007208D2
:100428000139F800F80E17087806CF3978069700D2
:100438007208F80007300310F80CFF3E031D1F2A4E
:100448007808F900F90E17087906EF397906970048
:1004580007300A128A11B2220A128A11F8007808A3
:10046800F1007108F8000310780C7B3E8312031327
:100478009B0071080139F800F80E17087806CF3983
:10048800780697007108F80007300310F80CFF3E53
:10049800031D492A7808F900F90E17087906EF397B
:1004A800790697006B2A86195A2A5B2A6B2A2C0828
:1004B80003195F2A612A0130622A0030F80078089F
:1004C800AC002C0C031C8512031885166B2A0B1024
:1004D800831203138C1D712A722A732A8C118C1EA5
:1004E800762A772A7B2A1A08F8007808F0007B0811
:1004F8008A007A0E8300FE0E7E0E0900F700770848
:10050800831203178D0076088C008B13831603174C
:100518008C130C1555308D00AA308D008C14831265
:1005280003130D1E982A992A932A0D12831603176E
:100538000C110B108B170800FF1BAA2A83137F18B6
:1005480083170008840A0319FF0A08007F087F3907
:100558008A000408840A0319FF0A8200F600760854
:10056800831203178D00831603178C130C14831240
:1005780003170C0808008312031381010B110800EC
:100600000D3420344C346534653472342F34453421
:10061000733463347234693462346934723420342C
:1006200065346E3420346C346134203445344534C0
:10063000503452344F344D34203428343134203443
:100640006F34203432342C342034723465347334B3
:1006500070346534633474346934763461346D34A1
:1006600065346E347434653429343A3420340D34AE
:1006700000340D342034533465346C3465346334C1
:10068000633469346F346E346134723420346C34C2
:100690006134203470346F347334693463346934B2
:1006A0006F346E342034643465346C3420347334E5
:1006B0006534723476346F342034613420346D34D0
:1006C0006F34643469346634693463346134723449
:1006D0003A3420340D340034283445346C3420341A
:1006E000763461346C346F347234203461346C3459
:1006F0006D346134633465346E34613464346F3422
:100700002034733465342034653473346334723484
:10071000693462346534203465346E342034753481
:100720006E34203473346534723476346F34293443
:100730000D3400340D34203449346E34673472344F
:1007400065347334613472342034643469347234FF
:1007500065346334633469346F346E342034613407
:1007600020346534733463347234693462346934E8
:100770007234203428344834653478342F34423489
:1007800069346E3429343A3420340D3400340D3455
:10079000203449346E3467347234653473346134D0
:1007A00072342034763461346C346F3472342034D3
:1007B00061342034653473346334723469346234A0
:1007C00069347234203428346E3475346D346534B1
:1007D0007234693463346F3429343A3420340D343C
:1007E00000340D342034533465346C346534633450
:1007F000633469346F346E3461347234203473344A
:100800006534723476346F342034613420346D347E
:100810006F346434693466346934633461347234F7
:100820002034283431342D34343429343A342034CB
:100830000D3400340D34203449346E34673472344E
:1008400065347334613472342034643469347234FE
:1008500065346334633469346F346E342034613406
:1008600020346C3465346534723420342834483490
:10087000653478342F34423469346E3429343A3450
:1008800020340D34003431342E34203443346F346A
:100890006E34743472346F346C3420346D3461349B
:1008A0006E34753461346C342034643465342034EF
:1008B00073346534723476346F3473340D340034E9
:1008C0000D342034433465347234723461346E3400
:1008D00064346F3420347434653472346D34693464
:1008E0006E3461346C342E342E342E3420340D3476
:1008F000003433342E342034533461346C3469344E
:10090000723420346434653420346C3461342034DF
:100910007434653472346D3469346E3461346C34DB
:100920000D34003432342E34203441346334633493
:1009300065346434653472342034613420346C346A
:100940006134203445344534503452344F344D34BE
:100950000D3400340D3420344D3465346E34753428
:1009600020347034723469346E34633469347034D2
:1009700061346C343A3420340D34003431342E3444
:10098000203449347A3471347534693465347234BE
:10099000643461340D34003433342E342034443420
:1009A0006534723465346334683461340D34003432
:1009B00032342E342034433465346E34743472341B
:1009C0006F340D340034AA3083120313A000843036
:1009D000A1000A128A119A270A128A11433083123F
:1009E0000313A0008430A1000A128A119A270A1268
:1009F0008A11923083120313A0008430A1000A12DE
:100A00008A119A270A128A11793083120313A000DF
:100A10008430A1000A128A119A270A128A118312BD
:100A200003138C1E142D152D0F2D682E3930A000A8
:100A30008330A1000A128A119A270A128A11BE3045
:100A400083120313A0008430A1000A128A119A278E
:100A50000A128A11D83083120313A0008430A10037
:100A60000A128A119A270A128A11CC3083120313B0
:100A7000A0008430A1000A128A119A270A128A1152
:100A8000831203138C1E452D462D402D562DFA3012
:100A9000A4002408F400692D7D30A4002408F4008B
:100AA000692DBC30A4002408F400692D7008A4004E
:100AB000A5012508003A03195E2D692D2408313A55
:100AC0000319472D033A03194C2D013A0319512DEF
:100AD000692DF130A0008330A1000A128A119A27F3
:100AE0000A128A11831203138C1E772D782D722D12
:100AF000CB2D7408A4002408F5000814081075080C
:100B000093007B2E7408A4002408F5000810081434
:100B1000750893007B2E7408A4000310240C7B3E00
:100B2000950074080139A400A40E17082406CF39D3
:100B3000240697007408A40007300310A40CFF3E9D
:100B4000031D9D2D2408A500A50E17082506EF39C5
:100B5000250697007B2E7408A4000310240C7B3E0E
:100B60009B0074080139A400A40E17082406CF398D
:100B7000240697007408A40007300310A40CFF3E5D
:100B8000031DBD2D2408A500A50E17082506EF3965
:100B9000250697007B2E7008A400A5012508003AC1
:100BA0000319D32D7B2E2408313A0319792D033AEA
:100BB0000319822D013A03198B2D073A0319AB2D26
:100BC0007B2E0030A0008330A1000A128A119A27E0
:100BD0000A128A11831203138C1EEF2DF02DEA2DB9
:100BE000462E1A30A0008430A1000A128A119A27DA
:100BF0000A128A116C3083120313A0008330A10003
:100C00000A128A119A270A128A11831203138C1E60
:100C10000A2E0B2E052E70080A128A11E9270A12D5
:100C20008A118312031395007B2E9A30A000833023
:100C3000A1000A128A119A270A128A118312031339
:100C40008C1E232E242E1E2E7008A4002408AE0015
:100C5000C730A0008330A1000A128A119A270A1215
:100C60008A11831203138C1E362E372E312E7008F4
:100C7000A4002408AD002D08A4002408A0002E081C
:100C80000A128A11C5270A128A117B2E7008A40045
:100C9000A5012508003A03194E2E7B2E2408313A6F
:100CA0000319F12D033A0319152E7B2EAC01603088
:100CB000A0008430A1000A128A119A270A128A1110
:100CC000831203132C0C031C8512031885167B2E2C
:100CD0007008A400A5012508003A0319702E7B2E88
:100CE0002408313A0319162D033A0319E12D013A6C
:100CF0000319562E7B2E08000F3083160317880029
:100D000089017030831603138F040F140F30850090
:100D10008312031385010F30831603138600831299
:100D20000313860183160313871007118711071613
:100D3000871283120313870183160313880183121A
:100D40000313880183160313890183120313890196
:100D50008316031381131514951415159515831215
:100D600003131F083F3940389F00C3309F05831687
:100D700003131F129F129F13831203131F14831652
:100D8000031307153F308312031397051708F03933
:100D90000C3897000F309D040F309500CF30970529
:100DA0000F309B00FA308316031392000330831236
:100DB0000313920412158C108C1CDF2EE02EDC2EF7
:100DC0008C1083160313071181120112011581146F
:100DD000011418121815831603178715CF308316C0
:100DE000031399009A0183120313981783160313B0
:100DF00018139816831203131816F0309405141262
:100E0000941683160313141794178B170B170C17CC
:100E1000831203130C130B118B16831603138C15FB
:100E2000831203138C118B150B10831603131614E6
:100E30009614161596158C16831203130516930136
:100E400008000A128A117C260A128A110A128A11D3
:100E5000F8270A128A110D3083120313A700FB3002
:100E6000A600A60B312FA70B312F831203132C08DA
:100E700003193B2F3C2F412F0A128A11E3240A1237
:100E80008A11831203139F18462F472F872F1F0C99
:100E9000A600260C0F39003A031D4F2F502F552F57
:100EA0001F08C33904389F007D2F1F0CA600260C95
:100EB0000F39013A031D5D2F5E2F632F1F08C339C1
:100EC00008389F007D2F1F0CA600260C0F39023A10
:100ED000031D6B2F6C2F712F1F08C3390C389F0017
:100EE0007D2F1F0CA600260C0F39033A031D792F06
:100EF0007A2F7D2FC3309F057D2F0F308312031370
:100F0000A600A60B812F842F831203139F14851331
:100F10000D3083120313A700FB30A600A60B8E2F03
:100F2000A70B8E2F7508831203139300352F0A1217
:100F30008A110C2883120313A301B32F0C1EA12FB7
:100F4000A22FB32F23082007840021080318210AA9
:100F5000FF000A128A11A0220A128A119900013098
:100F6000A2002208A30723082007840021080318F1
:100F7000210AFF000A128A11A0220A128A11003ADD
:100F8000031DC32FC42F9E2F080083120313A1003B
:100F90002108831203178D00831203132008831284
:100FA00003178C008B13831603178C130C15553005
:100FB0008D00AA308D008C14831203130D1EE12FB7
:100FC000E22FDC2F0D12831603170C110B108B1759
:100FD000080083120313A0002008831203178D005A
:100FE000831603178C130C14831203170C080800C4
:0A0FF0008312031381010B110800A6
:08400000FF3FFF3FFF3FFF3FC0
:04400E00D420FF3F7C
:00000001FF
