:060000000A128A110C280F
:10000800FE00030EF0000A08F1000A128A113D29C9
:100018000A128A110F28F40183010A128A1114287E
:100028000A128A11BE200A128A110A128A115C2148
:100038000A128A111030F200F20B202800008312F5
:1000480003139F182828292867281F0CF200720C10
:100058000F39003A031D3128322837281F08C339C1
:1000680004389F005F281F0CF200720C0F39013A08
:10007800031D3F28402845281F08C33908389F001A
:100088005F281F0CF200720C0F39023A031D4D282D
:100098004E2853281F08C3390C389F005F281F0CAF
:1000A800F200720C0F39033A031D5B285C285F28A5
:1000B800C3309F055F281030F200F20B6128000062
:1000C800831203139F1483160313141C6C286D28C2
:1000D8006728831203131308F2007208F400061C41
:1000E8007628772897287408F2000310720C7B3E54
:1000F800950074080139F200F20E17087206CF391C
:10010800720697007408F20007300310F20CFF3EE5
:10011800031D89287208F300F30E17087306EF39D8
:10012800730697002328861C9A289B28232874087E
:10013800F2000310720C7B3E9B0074080139F20038
:10014800F20E17087206CF39720697007408F2008B
:1001580007300310F20CFF3E031DAD287208F300B0
:10016800F30E17087306EF397306970023280A124F
:100178008A110C280F308316031788008901703004
:10018800831603138F040F1423308500831203137F
:100198008501033083160313860083120313860137
:1001A80018308316031387008312031387018316FD
:1001B800031388018312031388018316031389012B
:1001C8008312031389011F083F3940389F00C33049
:1001D8009F05831603131F129F129F138312031385
:1001E8001F148316031307153F3083120313970553
:1001F8001708F0390C3897000F309D040F30950020
:10020800CF3097050F309B00FA3083160313920006
:10021800033083120313920412158C108C1C1529B9
:10022800162912298C10831603138710071107113A
:100238008112011201158114011483120313140889
:10024800F039043894001412941683160313141703
:1002580094178B170B170C17831203130C130B111E
:100268008B16831603138C15831203138C11061433
:100278000800831203130C1F4229432944290C1335
:100288000B1D472948294E290A128A1161210A1291
:100298008A110B11831203138C1D532954295529D4
:1002A8008C1171088A00700E8300FE0E7E0E090004
:1002B8008312031381010B110800831203138101B8
:0402C8000B1108000E
:08400000FF3FFF3FFF3FFF3FC0
:04400E00D420FF3F7C
:00000001FF
